{
  "contractName": "DangerDonuts",
  "abi": [
    {
      "inputs": [],
      "stateMutability": "nonpayable",
      "type": "constructor"
    },
    {
      "inputs": [],
      "name": "ApprovalCallerNotOwnerNorApproved",
      "type": "error"
    },
    {
      "inputs": [],
      "name": "ApprovalQueryForNonexistentToken",
      "type": "error"
    },
    {
      "inputs": [],
      "name": "ApprovalToCurrentOwner",
      "type": "error"
    },
    {
      "inputs": [],
      "name": "ApproveToCaller",
      "type": "error"
    },
    {
      "inputs": [],
      "name": "BalanceQueryForZeroAddress",
      "type": "error"
    },
    {
      "inputs": [],
      "name": "MintToZeroAddress",
      "type": "error"
    },
    {
      "inputs": [],
      "name": "MintZeroQuantity",
      "type": "error"
    },
    {
      "inputs": [],
      "name": "OwnerQueryForNonexistentToken",
      "type": "error"
    },
    {
      "inputs": [],
      "name": "TransferCallerNotOwnerNorApproved",
      "type": "error"
    },
    {
      "inputs": [],
      "name": "TransferFromIncorrectOwner",
      "type": "error"
    },
    {
      "inputs": [],
      "name": "TransferToNonERC721ReceiverImplementer",
      "type": "error"
    },
    {
      "inputs": [],
      "name": "TransferToZeroAddress",
      "type": "error"
    },
    {
      "inputs": [],
      "name": "URIQueryForNonexistentToken",
      "type": "error"
    },
    {
      "anonymous": false,
      "inputs": [
        {
          "indexed": true,
          "internalType": "address",
          "name": "owner",
          "type": "address"
        },
        {
          "indexed": true,
          "internalType": "address",
          "name": "approved",
          "type": "address"
        },
        {
          "indexed": true,
          "internalType": "uint256",
          "name": "tokenId",
          "type": "uint256"
        }
      ],
      "name": "Approval",
      "type": "event"
    },
    {
      "anonymous": false,
      "inputs": [
        {
          "indexed": true,
          "internalType": "address",
          "name": "owner",
          "type": "address"
        },
        {
          "indexed": true,
          "internalType": "address",
          "name": "operator",
          "type": "address"
        },
        {
          "indexed": false,
          "internalType": "bool",
          "name": "approved",
          "type": "bool"
        }
      ],
      "name": "ApprovalForAll",
      "type": "event"
    },
    {
      "anonymous": false,
      "inputs": [
        {
          "indexed": true,
          "internalType": "address",
          "name": "previousOwner",
          "type": "address"
        },
        {
          "indexed": true,
          "internalType": "address",
          "name": "newOwner",
          "type": "address"
        }
      ],
      "name": "OwnershipTransferred",
      "type": "event"
    },
    {
      "anonymous": false,
      "inputs": [
        {
          "indexed": true,
          "internalType": "address",
          "name": "from",
          "type": "address"
        },
        {
          "indexed": true,
          "internalType": "address",
          "name": "to",
          "type": "address"
        },
        {
          "indexed": true,
          "internalType": "uint256",
          "name": "tokenId",
          "type": "uint256"
        }
      ],
      "name": "Transfer",
      "type": "event"
    },
    {
      "inputs": [
        {
          "internalType": "address",
          "name": "to",
          "type": "address"
        },
        {
          "internalType": "uint256",
          "name": "tokenId",
          "type": "uint256"
        }
      ],
      "name": "approve",
      "outputs": [],
      "stateMutability": "nonpayable",
      "type": "function"
    },
    {
      "inputs": [
        {
          "internalType": "address",
          "name": "owner",
          "type": "address"
        }
      ],
      "name": "balanceOf",
      "outputs": [
        {
          "internalType": "uint256",
          "name": "",
          "type": "uint256"
        }
      ],
      "stateMutability": "view",
      "type": "function"
    },
    {
      "inputs": [
        {
          "internalType": "uint256",
          "name": "tokenId",
          "type": "uint256"
        }
      ],
      "name": "getApproved",
      "outputs": [
        {
          "internalType": "address",
          "name": "",
          "type": "address"
        }
      ],
      "stateMutability": "view",
      "type": "function"
    },
    {
      "inputs": [
        {
          "internalType": "address",
          "name": "owner",
          "type": "address"
        },
        {
          "internalType": "address",
          "name": "operator",
          "type": "address"
        }
      ],
      "name": "isApprovedForAll",
      "outputs": [
        {
          "internalType": "bool",
          "name": "",
          "type": "bool"
        }
      ],
      "stateMutability": "view",
      "type": "function"
    },
    {
      "inputs": [
        {
          "internalType": "uint256",
          "name": "",
          "type": "uint256"
        }
      ],
      "name": "mAllowedQuantities",
      "outputs": [
        {
          "internalType": "uint256",
          "name": "",
          "type": "uint256"
        }
      ],
      "stateMutability": "view",
      "type": "function"
    },
    {
      "inputs": [],
      "name": "mBaseURI",
      "outputs": [
        {
          "internalType": "string",
          "name": "",
          "type": "string"
        }
      ],
      "stateMutability": "view",
      "type": "function"
    },
    {
      "inputs": [],
      "name": "mMaxTokenSupply",
      "outputs": [
        {
          "internalType": "uint256",
          "name": "",
          "type": "uint256"
        }
      ],
      "stateMutability": "view",
      "type": "function"
    },
    {
      "inputs": [
        {
          "internalType": "uint256",
          "name": "",
          "type": "uint256"
        }
      ],
      "name": "mPriceMap",
      "outputs": [
        {
          "internalType": "uint256",
          "name": "",
          "type": "uint256"
        }
      ],
      "stateMutability": "view",
      "type": "function"
    },
    {
      "inputs": [],
      "name": "mPublicSaleIsActive",
      "outputs": [
        {
          "internalType": "bool",
          "name": "",
          "type": "bool"
        }
      ],
      "stateMutability": "view",
      "type": "function"
    },
    {
      "inputs": [],
      "name": "name",
      "outputs": [
        {
          "internalType": "string",
          "name": "",
          "type": "string"
        }
      ],
      "stateMutability": "view",
      "type": "function"
    },
    {
      "inputs": [],
      "name": "owner",
      "outputs": [
        {
          "internalType": "address",
          "name": "",
          "type": "address"
        }
      ],
      "stateMutability": "view",
      "type": "function"
    },
    {
      "inputs": [
        {
          "internalType": "uint256",
          "name": "tokenId",
          "type": "uint256"
        }
      ],
      "name": "ownerOf",
      "outputs": [
        {
          "internalType": "address",
          "name": "",
          "type": "address"
        }
      ],
      "stateMutability": "view",
      "type": "function"
    },
    {
      "inputs": [],
      "name": "renounceOwnership",
      "outputs": [],
      "stateMutability": "nonpayable",
      "type": "function"
    },
    {
      "inputs": [
        {
          "internalType": "address",
          "name": "from",
          "type": "address"
        },
        {
          "internalType": "address",
          "name": "to",
          "type": "address"
        },
        {
          "internalType": "uint256",
          "name": "tokenId",
          "type": "uint256"
        }
      ],
      "name": "safeTransferFrom",
      "outputs": [],
      "stateMutability": "nonpayable",
      "type": "function"
    },
    {
      "inputs": [
        {
          "internalType": "address",
          "name": "from",
          "type": "address"
        },
        {
          "internalType": "address",
          "name": "to",
          "type": "address"
        },
        {
          "internalType": "uint256",
          "name": "tokenId",
          "type": "uint256"
        },
        {
          "internalType": "bytes",
          "name": "_data",
          "type": "bytes"
        }
      ],
      "name": "safeTransferFrom",
      "outputs": [],
      "stateMutability": "nonpayable",
      "type": "function"
    },
    {
      "inputs": [
        {
          "internalType": "address",
          "name": "operator",
          "type": "address"
        },
        {
          "internalType": "bool",
          "name": "approved",
          "type": "bool"
        }
      ],
      "name": "setApprovalForAll",
      "outputs": [],
      "stateMutability": "nonpayable",
      "type": "function"
    },
    {
      "inputs": [
        {
          "internalType": "bytes4",
          "name": "interfaceId",
          "type": "bytes4"
        }
      ],
      "name": "supportsInterface",
      "outputs": [
        {
          "internalType": "bool",
          "name": "",
          "type": "bool"
        }
      ],
      "stateMutability": "view",
      "type": "function"
    },
    {
      "inputs": [],
      "name": "symbol",
      "outputs": [
        {
          "internalType": "string",
          "name": "",
          "type": "string"
        }
      ],
      "stateMutability": "view",
      "type": "function"
    },
    {
      "inputs": [
        {
          "internalType": "uint256",
          "name": "tokenId",
          "type": "uint256"
        }
      ],
      "name": "tokenURI",
      "outputs": [
        {
          "internalType": "string",
          "name": "",
          "type": "string"
        }
      ],
      "stateMutability": "view",
      "type": "function"
    },
    {
      "inputs": [],
      "name": "totalSupply",
      "outputs": [
        {
          "internalType": "uint256",
          "name": "",
          "type": "uint256"
        }
      ],
      "stateMutability": "view",
      "type": "function"
    },
    {
      "inputs": [
        {
          "internalType": "address",
          "name": "from",
          "type": "address"
        },
        {
          "internalType": "address",
          "name": "to",
          "type": "address"
        },
        {
          "internalType": "uint256",
          "name": "tokenId",
          "type": "uint256"
        }
      ],
      "name": "transferFrom",
      "outputs": [],
      "stateMutability": "nonpayable",
      "type": "function"
    },
    {
      "inputs": [
        {
          "internalType": "address",
          "name": "newOwner",
          "type": "address"
        }
      ],
      "name": "transferOwnership",
      "outputs": [],
      "stateMutability": "nonpayable",
      "type": "function"
    },
    {
      "inputs": [
        {
          "internalType": "uint256",
          "name": "quantity",
          "type": "uint256"
        }
      ],
      "name": "mint",
      "outputs": [],
      "stateMutability": "payable",
      "type": "function"
    },
    {
      "inputs": [
        {
          "internalType": "address[]",
          "name": "recipients",
          "type": "address[]"
        },
        {
          "internalType": "uint256[]",
          "name": "quantities",
          "type": "uint256[]"
        }
      ],
      "name": "reserveMint",
      "outputs": [],
      "stateMutability": "nonpayable",
      "type": "function"
    },
    {
      "inputs": [
        {
          "internalType": "string",
          "name": "baseURI",
          "type": "string"
        }
      ],
      "name": "setBaseURI",
      "outputs": [],
      "stateMutability": "nonpayable",
      "type": "function"
    },
    {
      "inputs": [],
      "name": "flipPublicSaleState",
      "outputs": [],
      "stateMutability": "nonpayable",
      "type": "function"
    },
    {
      "inputs": [
        {
          "internalType": "uint256",
          "name": "amount",
          "type": "uint256"
        },
        {
          "internalType": "address payable",
          "name": "to",
          "type": "address"
        }
      ],
      "name": "forceWithdraw",
      "outputs": [],
      "stateMutability": "nonpayable",
      "type": "function"
    }
  ],
  "bytecode": "0x60806040526000600a60006101000a81548160ff021916908315150217905550611b1f600b5560405180602001604052806000815250600c90805190602001906200004c92919062000300565b506040518060a00160405280600160ff168152602001600260ff168152602001600660ff168152602001600c60ff168152602001600d60ff16815250600d9060056200009a92919062000391565b50348015620000a857600080fd5b506040518060400160405280600c81526020017f44616e676572446f6e75747300000000000000000000000000000000000000008152506040518060400160405280600281526020017f444400000000000000000000000000000000000000000000000000000000000081525062000135620001296200022f60201b60201c565b6200023760201b60201c565b81600390805190602001906200014d92919062000300565b5080600490805190602001906200016692919062000300565b5062000177620002fb60201b60201c565b60018190555050506001600981905550663c0a75e0b44000601260006001815260200190815260200160002081905550663c0a75e0b4400060126000600281526020019081526020016000208190555066b1a2bc2ec5000060126000600681526020019081526020016000208190555067013fbe85edc9000060126000600c81526020019081526020016000208190555067015842095ebc400060126000600d8152602001908152602001600020819055506200045f565b600033905090565b60008060009054906101000a900473ffffffffffffffffffffffffffffffffffffffff169050816000806101000a81548173ffffffffffffffffffffffffffffffffffffffff021916908373ffffffffffffffffffffffffffffffffffffffff1602179055508173ffffffffffffffffffffffffffffffffffffffff168173ffffffffffffffffffffffffffffffffffffffff167f8be0079c531659141344cd1fd0a4f28419497f9722a3daafe3b4186f6b6457e060405160405180910390a35050565b600090565b8280546200030e90620003fa565b90600052602060002090601f0160209004810192826200033257600085556200037e565b82601f106200034d57805160ff19168380011785556200037e565b828001600101855582156200037e579182015b828111156200037d57825182559160200191906001019062000360565b5b5090506200038d9190620003db565b5090565b8260058101928215620003c8579160200282015b82811115620003c7578251829060ff16905591602001919060010190620003a5565b5b509050620003d79190620003db565b5090565b5b80821115620003f6576000816000905550600101620003dc565b5090565b600060028204905060018216806200041357607f821691505b602082108114156200042a576200042962000430565b5b50919050565b7f4e487b7100000000000000000000000000000000000000000000000000000000600052602260045260246000fd5b613a57806200046f6000396000f3fe60806040526004361061019c5760003560e01c8063715018a6116100ec578063a22cb4651161008a578063c87b56dd11610064578063c87b56dd14610591578063e985e9c5146105ce578063f2fde38b1461060b578063faabbb06146106345761019c565b8063a22cb46514610514578063b88d4fde1461053d578063c0a58fa9146105665761019c565b806395d89b41116100c657806395d89b411461048d578063963565e1146104b8578063a0712d68146104e1578063a10866ef146104fd5761019c565b8063715018a6146104205780638734c6ea146104375780638da5cb5b146104625761019c565b806323b872dd1161015957806355f804b31161013357806355f804b3146103405780636352211e146103695780636ebb7f20146103a657806370a08231146103e35761019c565b806323b872dd146102c557806342842e0e146102ee5780634ef020b2146103175761019c565b806301ffc9a7146101a157806306fdde03146101de578063081812fc14610209578063095ea7b31461024657806318160ddd1461026f5780632149b8ed1461029a575b600080fd5b3480156101ad57600080fd5b506101c860048036038101906101c39190612dad565b610671565b6040516101d591906131b2565b60405180910390f35b3480156101ea57600080fd5b506101f3610753565b60405161020091906131cd565b60405180910390f35b34801561021557600080fd5b50610230600480360381019061022b9190612e54565b6107e5565b60405161023d919061314b565b60405180910390f35b34801561025257600080fd5b5061026d60048036038101906102689190612cec565b610861565b005b34801561027b57600080fd5b5061028461096c565b604051610291919061332f565b60405180910390f35b3480156102a657600080fd5b506102af610983565b6040516102bc91906131cd565b60405180910390f35b3480156102d157600080fd5b506102ec60048036038101906102e79190612bd6565b610a11565b005b3480156102fa57600080fd5b5061031560048036038101906103109190612bd6565b610a21565b005b34801561032357600080fd5b5061033e60048036038101906103399190612e81565b610a41565b005b34801561034c57600080fd5b5061036760048036038101906103629190612e07565b610bc4565b005b34801561037557600080fd5b50610390600480360381019061038b9190612e54565b610c56565b60405161039d919061314b565b60405180910390f35b3480156103b257600080fd5b506103cd60048036038101906103c89190612e54565b610c6c565b6040516103da919061332f565b60405180910390f35b3480156103ef57600080fd5b5061040a60048036038101906104059190612b69565b610c84565b604051610417919061332f565b60405180910390f35b34801561042c57600080fd5b50610435610d54565b005b34801561044357600080fd5b5061044c610ddc565b60405161045991906131b2565b60405180910390f35b34801561046e57600080fd5b50610477610def565b604051610484919061314b565b60405180910390f35b34801561049957600080fd5b506104a2610e18565b6040516104af91906131cd565b60405180910390f35b3480156104c457600080fd5b506104df60048036038101906104da9190612d2c565b610eaa565b005b6104fb60048036038101906104f69190612e54565b6110d8565b005b34801561050957600080fd5b5061051261126f565b005b34801561052057600080fd5b5061053b60048036038101906105369190612cac565b611317565b005b34801561054957600080fd5b50610564600480360381019061055f9190612c29565b61148f565b005b34801561057257600080fd5b5061057b61150b565b604051610588919061332f565b60405180910390f35b34801561059d57600080fd5b506105b860048036038101906105b39190612e54565b611511565b6040516105c591906131cd565b60405180910390f35b3480156105da57600080fd5b506105f560048036038101906105f09190612b96565b6115b0565b60405161060291906131b2565b60405180910390f35b34801561061757600080fd5b50610632600480360381019061062d9190612b69565b611644565b005b34801561064057600080fd5b5061065b60048036038101906106569190612e54565b61173c565b604051610668919061332f565b60405180910390f35b60007f80ac58cd000000000000000000000000000000000000000000000000000000007bffffffffffffffffffffffffffffffffffffffffffffffffffffffff1916827bffffffffffffffffffffffffffffffffffffffffffffffffffffffff1916148061073c57507f5b5e139f000000000000000000000000000000000000000000000000000000007bffffffffffffffffffffffffffffffffffffffffffffffffffffffff1916827bffffffffffffffffffffffffffffffffffffffffffffffffffffffff1916145b8061074c575061074b82611757565b5b9050919050565b6060600380546107629061357e565b80601f016020809104026020016040519081016040528092919081815260200182805461078e9061357e565b80156107db5780601f106107b0576101008083540402835291602001916107db565b820191906000526020600020905b8154815290600101906020018083116107be57829003601f168201915b5050505050905090565b60006107f0826117c1565b610826576040517fcf4700e400000000000000000000000000000000000000000000000000000000815260040160405180910390fd5b6007600083815260200190815260200160002060009054906101000a900473ffffffffffffffffffffffffffffffffffffffff169050919050565b600061086c82610c56565b90508073ffffffffffffffffffffffffffffffffffffffff168373ffffffffffffffffffffffffffffffffffffffff1614156108d4576040517f943f7b8c00000000000000000000000000000000000000000000000000000000815260040160405180910390fd5b8073ffffffffffffffffffffffffffffffffffffffff166108f361180f565b73ffffffffffffffffffffffffffffffffffffffff161415801561092557506109238161091e61180f565b6115b0565b155b1561095c576040517fcfb3b94200000000000000000000000000000000000000000000000000000000815260040160405180910390fd5b610967838383611817565b505050565b60006109766118c9565b6002546001540303905090565b600c80546109909061357e565b80601f01602080910402602001604051908101604052809291908181526020018280546109bc9061357e565b8015610a095780601f106109de57610100808354040283529160200191610a09565b820191906000526020600020905b8154815290600101906020018083116109ec57829003601f168201915b505050505081565b610a1c8383836118ce565b505050565b610a3c8383836040518060200160405280600081525061148f565b505050565b610a4961180f565b73ffffffffffffffffffffffffffffffffffffffff16610a67610def565b73ffffffffffffffffffffffffffffffffffffffff1614610abd576040517f08c379a0000000000000000000000000000000000000000000000000000000008152600401610ab49061328f565b60405180910390fd5b60026009541415610b03576040517f08c379a0000000000000000000000000000000000000000000000000000000008152600401610afa9061330f565b60405180910390fd5b600260098190555060008173ffffffffffffffffffffffffffffffffffffffff1683604051610b3190613136565b60006040518083038185875af1925050503d8060008114610b6e576040519150601f19603f3d011682016040523d82523d6000602084013e610b73565b606091505b5050905080610bb7576040517f08c379a0000000000000000000000000000000000000000000000000000000008152600401610bae906132ef565b60405180910390fd5b5060016009819055505050565b610bcc61180f565b73ffffffffffffffffffffffffffffffffffffffff16610bea610def565b73ffffffffffffffffffffffffffffffffffffffff1614610c40576040517f08c379a0000000000000000000000000000000000000000000000000000000008152600401610c379061328f565b60405180910390fd5b8181600c9190610c51929190612893565b505050565b6000610c6182611dbf565b600001519050919050565b60126020528060005260406000206000915090505481565b60008073ffffffffffffffffffffffffffffffffffffffff168273ffffffffffffffffffffffffffffffffffffffff161415610cec576040517f8f4eb60400000000000000000000000000000000000000000000000000000000815260040160405180910390fd5b600660008373ffffffffffffffffffffffffffffffffffffffff1673ffffffffffffffffffffffffffffffffffffffff16815260200190815260200160002060000160009054906101000a900467ffffffffffffffff1667ffffffffffffffff169050919050565b610d5c61180f565b73ffffffffffffffffffffffffffffffffffffffff16610d7a610def565b73ffffffffffffffffffffffffffffffffffffffff1614610dd0576040517f08c379a0000000000000000000000000000000000000000000000000000000008152600401610dc79061328f565b60405180910390fd5b610dda600061204e565b565b600a60009054906101000a900460ff1681565b60008060009054906101000a900473ffffffffffffffffffffffffffffffffffffffff16905090565b606060048054610e279061357e565b80601f0160208091040260200160405190810160405280929190818152602001828054610e539061357e565b8015610ea05780601f10610e7557610100808354040283529160200191610ea0565b820191906000526020600020905b815481529060010190602001808311610e8357829003601f168201915b5050505050905090565b610eb261180f565b73ffffffffffffffffffffffffffffffffffffffff16610ed0610def565b73ffffffffffffffffffffffffffffffffffffffff1614610f26576040517f08c379a0000000000000000000000000000000000000000000000000000000008152600401610f1d9061328f565b60405180910390fd5b60026009541415610f6c576040517f08c379a0000000000000000000000000000000000000000000000000000000008152600401610f639061330f565b60405180910390fd5b6002600981905550818190508484905014610fbc576040517f08c379a0000000000000000000000000000000000000000000000000000000008152600401610fb3906132cf565b60405180910390fd5b6000805b8383905081101561100557838382818110610fde57610fdd613712565b5b9050602002013582610ff091906133ee565b91508080610ffd906135e1565b915050610fc0565b50600b5461101161096c565b8261101c91906133ee565b111561105d576040517f08c379a00000000000000000000000000000000000000000000000000000000081526004016110549061326f565b60405180910390fd5b60005b858590508110156110c8576110b586868381811061108157611080613712565b5b90506020020160208101906110969190612b69565b8585848181106110a9576110a8613712565b5b90506020020135612112565b80806110c0906135e1565b915050611060565b5050600160098190555050505050565b600a60009054906101000a900460ff16611127576040517f08c379a000000000000000000000000000000000000000000000000000000000815260040161111e906131ef565b60405180910390fd5b600b5461113261096c565b8261113d91906133ee565b111561117e576040517f08c379a00000000000000000000000000000000000000000000000000000000081526004016111759061324f565b60405180910390fd5b6000805b60058160ff1610156111ca57600d8160ff16600581106111a5576111a4613712565b5b01548314156111b757600191506111ca565b80806111c29061362a565b915050611182565b508061120b576040517f08c379a0000000000000000000000000000000000000000000000000000000008152600401611202906132af565b60405180910390fd5b6012600083815260200190815260200160002054341015611261576040517f08c379a00000000000000000000000000000000000000000000000000000000081526004016112589061322f565b60405180910390fd5b61126b3383612112565b5050565b61127761180f565b73ffffffffffffffffffffffffffffffffffffffff16611295610def565b73ffffffffffffffffffffffffffffffffffffffff16146112eb576040517f08c379a00000000000000000000000000000000000000000000000000000000081526004016112e29061328f565b60405180910390fd5b600a60009054906101000a900460ff1615600a60006101000a81548160ff021916908315150217905550565b61131f61180f565b73ffffffffffffffffffffffffffffffffffffffff168273ffffffffffffffffffffffffffffffffffffffff161415611384576040517fb06307db00000000000000000000000000000000000000000000000000000000815260040160405180910390fd5b806008600061139161180f565b73ffffffffffffffffffffffffffffffffffffffff1673ffffffffffffffffffffffffffffffffffffffff16815260200190815260200160002060008473ffffffffffffffffffffffffffffffffffffffff1673ffffffffffffffffffffffffffffffffffffffff16815260200190815260200160002060006101000a81548160ff0219169083151502179055508173ffffffffffffffffffffffffffffffffffffffff1661143e61180f565b73ffffffffffffffffffffffffffffffffffffffff167f17307eab39ab6107e8899845ad3d59bd9653f200f220920489ca2b5937696c318360405161148391906131b2565b60405180910390a35050565b61149a8484846118ce565b6114b98373ffffffffffffffffffffffffffffffffffffffff16612130565b80156114ce57506114cc84848484612153565b155b15611505576040517fd1a57ed600000000000000000000000000000000000000000000000000000000815260040160405180910390fd5b50505050565b600b5481565b606061151c826117c1565b611552576040517fa14c4b5000000000000000000000000000000000000000000000000000000000815260040160405180910390fd5b600061155c6122b3565b905060008151141561157d57604051806020016040528060008152506115a8565b8061158784612345565b604051602001611598929190613112565b6040516020818303038152906040525b915050919050565b6000600860008473ffffffffffffffffffffffffffffffffffffffff1673ffffffffffffffffffffffffffffffffffffffff16815260200190815260200160002060008373ffffffffffffffffffffffffffffffffffffffff1673ffffffffffffffffffffffffffffffffffffffff16815260200190815260200160002060009054906101000a900460ff16905092915050565b61164c61180f565b73ffffffffffffffffffffffffffffffffffffffff1661166a610def565b73ffffffffffffffffffffffffffffffffffffffff16146116c0576040517f08c379a00000000000000000000000000000000000000000000000000000000081526004016116b79061328f565b60405180910390fd5b600073ffffffffffffffffffffffffffffffffffffffff168173ffffffffffffffffffffffffffffffffffffffff161415611730576040517f08c379a00000000000000000000000000000000000000000000000000000000081526004016117279061320f565b60405180910390fd5b6117398161204e565b50565b600d816005811061174c57600080fd5b016000915090505481565b60007f01ffc9a7000000000000000000000000000000000000000000000000000000007bffffffffffffffffffffffffffffffffffffffffffffffffffffffff1916827bffffffffffffffffffffffffffffffffffffffffffffffffffffffff1916149050919050565b6000816117cc6118c9565b111580156117db575060015482105b8015611808575060056000838152602001908152602001600020600001601c9054906101000a900460ff16155b9050919050565b600033905090565b826007600084815260200190815260200160002060006101000a81548173ffffffffffffffffffffffffffffffffffffffff021916908373ffffffffffffffffffffffffffffffffffffffff160217905550818373ffffffffffffffffffffffffffffffffffffffff168273ffffffffffffffffffffffffffffffffffffffff167f8c5be1e5ebec7d5bd14f71427d1e84f3dd0314c0f7b2291e5b200ac8c7c3b92560405160405180910390a4505050565b600090565b60006118d982611dbf565b90506000816000015173ffffffffffffffffffffffffffffffffffffffff1661190061180f565b73ffffffffffffffffffffffffffffffffffffffff1614806119335750611932826000015161192d61180f565b6115b0565b5b80611978575061194161180f565b73ffffffffffffffffffffffffffffffffffffffff16611960846107e5565b73ffffffffffffffffffffffffffffffffffffffff16145b9050806119b1576040517f59c896be00000000000000000000000000000000000000000000000000000000815260040160405180910390fd5b8473ffffffffffffffffffffffffffffffffffffffff16826000015173ffffffffffffffffffffffffffffffffffffffff1614611a1a576040517fa114810000000000000000000000000000000000000000000000000000000000815260040160405180910390fd5b600073ffffffffffffffffffffffffffffffffffffffff168473ffffffffffffffffffffffffffffffffffffffff161415611a81576040517fea553b3400000000000000000000000000000000000000000000000000000000815260040160405180910390fd5b611a8e85858560016124a6565b611a9e6000848460000151611817565b6001600660008773ffffffffffffffffffffffffffffffffffffffff1673ffffffffffffffffffffffffffffffffffffffff16815260200190815260200160002060000160008282829054906101000a900467ffffffffffffffff160392506101000a81548167ffffffffffffffff021916908367ffffffffffffffff1602179055506001600660008673ffffffffffffffffffffffffffffffffffffffff1673ffffffffffffffffffffffffffffffffffffffff16815260200190815260200160002060000160008282829054906101000a900467ffffffffffffffff160192506101000a81548167ffffffffffffffff021916908367ffffffffffffffff160217905550836005600085815260200190815260200160002060000160006101000a81548173ffffffffffffffffffffffffffffffffffffffff021916908373ffffffffffffffffffffffffffffffffffffffff160217905550426005600085815260200190815260200160002060000160146101000a81548167ffffffffffffffff021916908367ffffffffffffffff1602179055506000600184019050600073ffffffffffffffffffffffffffffffffffffffff166005600083815260200190815260200160002060000160009054906101000a900473ffffffffffffffffffffffffffffffffffffffff1673ffffffffffffffffffffffffffffffffffffffff161415611d4f57600154811015611d4e5782600001516005600083815260200190815260200160002060000160006101000a81548173ffffffffffffffffffffffffffffffffffffffff021916908373ffffffffffffffffffffffffffffffffffffffff16021790555082602001516005600083815260200190815260200160002060000160146101000a81548167ffffffffffffffff021916908367ffffffffffffffff1602179055505b5b50828473ffffffffffffffffffffffffffffffffffffffff168673ffffffffffffffffffffffffffffffffffffffff167fddf252ad1be2c89b69c2b068fc378daa952ba7f163c4a11628f55a4df523b3ef60405160405180910390a4611db885858560016124ac565b5050505050565b611dc7612919565b600082905080611dd56118c9565b11158015611de4575060015481105b15612017576000600560008381526020019081526020016000206040518060600160405290816000820160009054906101000a900473ffffffffffffffffffffffffffffffffffffffff1673ffffffffffffffffffffffffffffffffffffffff1673ffffffffffffffffffffffffffffffffffffffff1681526020016000820160149054906101000a900467ffffffffffffffff1667ffffffffffffffff1667ffffffffffffffff16815260200160008201601c9054906101000a900460ff1615151515815250509050806040015161201557600073ffffffffffffffffffffffffffffffffffffffff16816000015173ffffffffffffffffffffffffffffffffffffffff1614611ef9578092505050612049565b5b60011561201457818060019003925050600560008381526020019081526020016000206040518060600160405290816000820160009054906101000a900473ffffffffffffffffffffffffffffffffffffffff1673ffffffffffffffffffffffffffffffffffffffff1673ffffffffffffffffffffffffffffffffffffffff1681526020016000820160149054906101000a900467ffffffffffffffff1667ffffffffffffffff1667ffffffffffffffff16815260200160008201601c9054906101000a900460ff1615151515815250509050600073ffffffffffffffffffffffffffffffffffffffff16816000015173ffffffffffffffffffffffffffffffffffffffff161461200f578092505050612049565b611efa565b5b505b6040517fdf2d9b4200000000000000000000000000000000000000000000000000000000815260040160405180910390fd5b919050565b60008060009054906101000a900473ffffffffffffffffffffffffffffffffffffffff169050816000806101000a81548173ffffffffffffffffffffffffffffffffffffffff021916908373ffffffffffffffffffffffffffffffffffffffff1602179055508173ffffffffffffffffffffffffffffffffffffffff168173ffffffffffffffffffffffffffffffffffffffff167f8be0079c531659141344cd1fd0a4f28419497f9722a3daafe3b4186f6b6457e060405160405180910390a35050565b61212c8282604051806020016040528060008152506124b2565b5050565b6000808273ffffffffffffffffffffffffffffffffffffffff163b119050919050565b60008373ffffffffffffffffffffffffffffffffffffffff1663150b7a0261217961180f565b8786866040518563ffffffff1660e01b815260040161219b9493929190613166565b602060405180830381600087803b1580156121b557600080fd5b505af19250505080156121e657506040513d601f19601f820116820180604052508101906121e39190612dda565b60015b612260573d8060008114612216576040519150601f19603f3d011682016040523d82523d6000602084013e61221b565b606091505b50600081511415612258576040517fd1a57ed600000000000000000000000000000000000000000000000000000000815260040160405180910390fd5b805181602001fd5b63150b7a0260e01b7bffffffffffffffffffffffffffffffffffffffffffffffffffffffff1916817bffffffffffffffffffffffffffffffffffffffffffffffffffffffff191614915050949350505050565b6060600c80546122c29061357e565b80601f01602080910402602001604051908101604052809291908181526020018280546122ee9061357e565b801561233b5780601f106123105761010080835404028352916020019161233b565b820191906000526020600020905b81548152906001019060200180831161231e57829003601f168201915b5050505050905090565b6060600082141561238d576040518060400160405280600181526020017f300000000000000000000000000000000000000000000000000000000000000081525090506124a1565b600082905060005b600082146123bf5780806123a8906135e1565b915050600a826123b89190613444565b9150612395565b60008167ffffffffffffffff8111156123db576123da613741565b5b6040519080825280601f01601f19166020018201604052801561240d5781602001600182028036833780820191505090505b5090505b6000851461249a576001826124269190613475565b9150600a856124359190613654565b603061244191906133ee565b60f81b81838151811061245757612456613712565b5b60200101907effffffffffffffffffffffffffffffffffffffffffffffffffffffffffffff1916908160001a905350600a856124939190613444565b9450612411565b8093505050505b919050565b50505050565b50505050565b6124bf83838360016124c4565b505050565b60006001549050600073ffffffffffffffffffffffffffffffffffffffff168573ffffffffffffffffffffffffffffffffffffffff161415612532576040517f2e07630000000000000000000000000000000000000000000000000000000000815260040160405180910390fd5b600084141561256d576040517fb562e8dd00000000000000000000000000000000000000000000000000000000815260040160405180910390fd5b61257a60008683876124a6565b83600660008773ffffffffffffffffffffffffffffffffffffffff1673ffffffffffffffffffffffffffffffffffffffff16815260200190815260200160002060000160008282829054906101000a900467ffffffffffffffff160192506101000a81548167ffffffffffffffff021916908367ffffffffffffffff16021790555083600660008773ffffffffffffffffffffffffffffffffffffffff1673ffffffffffffffffffffffffffffffffffffffff16815260200190815260200160002060000160088282829054906101000a900467ffffffffffffffff160192506101000a81548167ffffffffffffffff021916908367ffffffffffffffff160217905550846005600083815260200190815260200160002060000160006101000a81548173ffffffffffffffffffffffffffffffffffffffff021916908373ffffffffffffffffffffffffffffffffffffffff160217905550426005600083815260200190815260200160002060000160146101000a81548167ffffffffffffffff021916908367ffffffffffffffff16021790555060008190506000858201905083801561274457506127438773ffffffffffffffffffffffffffffffffffffffff16612130565b5b1561280a575b818773ffffffffffffffffffffffffffffffffffffffff16600073ffffffffffffffffffffffffffffffffffffffff167fddf252ad1be2c89b69c2b068fc378daa952ba7f163c4a11628f55a4df523b3ef60405160405180910390a46127b96000888480600101955088612153565b6127ef576040517fd1a57ed600000000000000000000000000000000000000000000000000000000815260040160405180910390fd5b8082141561274a57826001541461280557600080fd5b612876565b5b818060010192508773ffffffffffffffffffffffffffffffffffffffff16600073ffffffffffffffffffffffffffffffffffffffff167fddf252ad1be2c89b69c2b068fc378daa952ba7f163c4a11628f55a4df523b3ef60405160405180910390a48082141561280b575b81600181905550505061288c60008683876124ac565b5050505050565b82805461289f9061357e565b90600052602060002090601f0160209004810192826128c15760008555612908565b82601f106128da57803560ff1916838001178555612908565b82800160010185558215612908579182015b828111156129075782358255916020019190600101906128ec565b5b509050612915919061295c565b5090565b6040518060600160405280600073ffffffffffffffffffffffffffffffffffffffff168152602001600067ffffffffffffffff1681526020016000151581525090565b5b8082111561297557600081600090555060010161295d565b5090565b600061298c6129878461336f565b61334a565b9050828152602081018484840111156129a8576129a761377f565b5b6129b384828561353c565b509392505050565b6000813590506129ca816139ae565b92915050565b6000813590506129df816139c5565b92915050565b60008083601f8401126129fb576129fa613775565b5b8235905067ffffffffffffffff811115612a1857612a17613770565b5b602083019150836020820283011115612a3457612a3361377a565b5b9250929050565b60008083601f840112612a5157612a50613775565b5b8235905067ffffffffffffffff811115612a6e57612a6d613770565b5b602083019150836020820283011115612a8a57612a8961377a565b5b9250929050565b600081359050612aa0816139dc565b92915050565b600081359050612ab5816139f3565b92915050565b600081519050612aca816139f3565b92915050565b600082601f830112612ae557612ae4613775565b5b8135612af5848260208601612979565b91505092915050565b60008083601f840112612b1457612b13613775565b5b8235905067ffffffffffffffff811115612b3157612b30613770565b5b602083019150836001820283011115612b4d57612b4c61377a565b5b9250929050565b600081359050612b6381613a0a565b92915050565b600060208284031215612b7f57612b7e613789565b5b6000612b8d848285016129bb565b91505092915050565b60008060408385031215612bad57612bac613789565b5b6000612bbb858286016129bb565b9250506020612bcc858286016129bb565b9150509250929050565b600080600060608486031215612bef57612bee613789565b5b6000612bfd868287016129bb565b9350506020612c0e868287016129bb565b9250506040612c1f86828701612b54565b9150509250925092565b60008060008060808587031215612c4357612c42613789565b5b6000612c51878288016129bb565b9450506020612c62878288016129bb565b9350506040612c7387828801612b54565b925050606085013567ffffffffffffffff811115612c9457612c93613784565b5b612ca087828801612ad0565b91505092959194509250565b60008060408385031215612cc357612cc2613789565b5b6000612cd1858286016129bb565b9250506020612ce285828601612a91565b9150509250929050565b60008060408385031215612d0357612d02613789565b5b6000612d11858286016129bb565b9250506020612d2285828601612b54565b9150509250929050565b60008060008060408587031215612d4657612d45613789565b5b600085013567ffffffffffffffff811115612d6457612d63613784565b5b612d70878288016129e5565b9450945050602085013567ffffffffffffffff811115612d9357612d92613784565b5b612d9f87828801612a3b565b925092505092959194509250565b600060208284031215612dc357612dc2613789565b5b6000612dd184828501612aa6565b91505092915050565b600060208284031215612df057612def613789565b5b6000612dfe84828501612abb565b91505092915050565b60008060208385031215612e1e57612e1d613789565b5b600083013567ffffffffffffffff811115612e3c57612e3b613784565b5b612e4885828601612afe565b92509250509250929050565b600060208284031215612e6a57612e69613789565b5b6000612e7884828501612b54565b91505092915050565b60008060408385031215612e9857612e97613789565b5b6000612ea685828601612b54565b9250506020612eb7858286016129d0565b9150509250929050565b612eca816134a9565b82525050565b612ed9816134cd565b82525050565b6000612eea826133a0565b612ef481856133b6565b9350612f0481856020860161354b565b612f0d8161378e565b840191505092915050565b6000612f23826133ab565b612f2d81856133d2565b9350612f3d81856020860161354b565b612f468161378e565b840191505092915050565b6000612f5c826133ab565b612f6681856133e3565b9350612f7681856020860161354b565b80840191505092915050565b6000612f8f6022836133d2565b9150612f9a8261379f565b604082019050919050565b6000612fb26026836133d2565b9150612fbd826137ee565b604082019050919050565b6000612fd5601f836133d2565b9150612fe08261383d565b602082019050919050565b6000612ff86020836133d2565b915061300382613866565b602082019050919050565b600061301b6024836133d2565b91506130268261388f565b604082019050919050565b600061303e6020836133d2565b9150613049826138de565b602082019050919050565b60006130616018836133d2565b915061306c82613907565b602082019050919050565b60006130846018836133d2565b915061308f82613930565b602082019050919050565b60006130a76000836133c7565b91506130b282613959565b600082019050919050565b60006130ca6010836133d2565b91506130d58261395c565b602082019050919050565b60006130ed601f836133d2565b91506130f882613985565b602082019050919050565b61310c81613525565b82525050565b600061311e8285612f51565b915061312a8284612f51565b91508190509392505050565b60006131418261309a565b9150819050919050565b60006020820190506131606000830184612ec1565b92915050565b600060808201905061317b6000830187612ec1565b6131886020830186612ec1565b6131956040830185613103565b81810360608301526131a78184612edf565b905095945050505050565b60006020820190506131c76000830184612ed0565b92915050565b600060208201905081810360008301526131e78184612f18565b905092915050565b6000602082019050818103600083015261320881612f82565b9050919050565b6000602082019050818103600083015261322881612fa5565b9050919050565b6000602082019050818103600083015261324881612fc8565b9050919050565b6000602082019050818103600083015261326881612feb565b9050919050565b600060208201905081810360008301526132888161300e565b9050919050565b600060208201905081810360008301526132a881613031565b9050919050565b600060208201905081810360008301526132c881613054565b9050919050565b600060208201905081810360008301526132e881613077565b9050919050565b60006020820190508181036000830152613308816130bd565b9050919050565b60006020820190508181036000830152613328816130e0565b9050919050565b60006020820190506133446000830184613103565b92915050565b6000613354613365565b905061336082826135b0565b919050565b6000604051905090565b600067ffffffffffffffff82111561338a57613389613741565b5b6133938261378e565b9050602081019050919050565b600081519050919050565b600081519050919050565b600082825260208201905092915050565b600081905092915050565b600082825260208201905092915050565b600081905092915050565b60006133f982613525565b915061340483613525565b9250827fffffffffffffffffffffffffffffffffffffffffffffffffffffffffffffffff0382111561343957613438613685565b5b828201905092915050565b600061344f82613525565b915061345a83613525565b92508261346a576134696136b4565b5b828204905092915050565b600061348082613525565b915061348b83613525565b92508282101561349e5761349d613685565b5b828203905092915050565b60006134b482613505565b9050919050565b60006134c682613505565b9050919050565b60008115159050919050565b60007fffffffff0000000000000000000000000000000000000000000000000000000082169050919050565b600073ffffffffffffffffffffffffffffffffffffffff82169050919050565b6000819050919050565b600060ff82169050919050565b82818337600083830152505050565b60005b8381101561356957808201518184015260208101905061354e565b83811115613578576000848401525b50505050565b6000600282049050600182168061359657607f821691505b602082108114156135aa576135a96136e3565b5b50919050565b6135b98261378e565b810181811067ffffffffffffffff821117156135d8576135d7613741565b5b80604052505050565b60006135ec82613525565b91507fffffffffffffffffffffffffffffffffffffffffffffffffffffffffffffffff82141561361f5761361e613685565b5b600182019050919050565b60006136358261352f565b915060ff82141561364957613648613685565b5b600182019050919050565b600061365f82613525565b915061366a83613525565b92508261367a576136796136b4565b5b828206905092915050565b7f4e487b7100000000000000000000000000000000000000000000000000000000600052601160045260246000fd5b7f4e487b7100000000000000000000000000000000000000000000000000000000600052601260045260246000fd5b7f4e487b7100000000000000000000000000000000000000000000000000000000600052602260045260246000fd5b7f4e487b7100000000000000000000000000000000000000000000000000000000600052603260045260246000fd5b7f4e487b7100000000000000000000000000000000000000000000000000000000600052604160045260246000fd5b600080fd5b600080fd5b600080fd5b600080fd5b600080fd5b600080fd5b6000601f19601f8301169050919050565b7f5075626c69632073616c65206d7573742062652061637469766520746f206d6960008201527f6e74000000000000000000000000000000000000000000000000000000000000602082015250565b7f4f776e61626c653a206e6577206f776e657220697320746865207a65726f206160008201527f6464726573730000000000000000000000000000000000000000000000000000602082015250565b7f45746865722076616c75652073656e7420776173206e6f7420656e6f75676800600082015250565b7f507572636861736520776f756c6420657863656564206d617820737570706c79600082015250565b7f52657365727665206d696e7420776f756c6420657863656564206d617820737560008201527f70706c7900000000000000000000000000000000000000000000000000000000602082015250565b7f4f776e61626c653a2063616c6c6572206973206e6f7420746865206f776e6572600082015250565b7f5175616e74697479206e6f74206f6e20746865206d656e750000000000000000600082015250565b7f4172726179206c656e67746873206d757374206d617463680000000000000000600082015250565b50565b7f5472616e73666572206661696c65642e00000000000000000000000000000000600082015250565b7f5265656e7472616e637947756172643a207265656e7472616e742063616c6c00600082015250565b6139b7816134a9565b81146139c257600080fd5b50565b6139ce816134bb565b81146139d957600080fd5b50565b6139e5816134cd565b81146139f057600080fd5b50565b6139fc816134d9565b8114613a0757600080fd5b50565b613a1381613525565b8114613a1e57600080fd5b5056fea2646970667358221220c0bea9437a7c8d44c405aab940581abebf9836be4abb2dc6b9b9551de91f2b1364736f6c63430008070033",
  "immutableReferences": {},
  "source": "// SPDX-License-Identifier: MIT\npragma solidity ^0.8.7;\n\nimport \"@openzeppelin/contracts/access/Ownable.sol\";\nimport \"@openzeppelin/contracts/security/ReentrancyGuard.sol\";\nimport \"erc721a/contracts/ERC721A.sol\";\n\ncontract DangerDonuts is Ownable, ERC721A, ReentrancyGuard {\n    \n    bool public mPublicSaleIsActive = false;\n    uint256 public mMaxTokenSupply = 6943;\n    string public mBaseURI = \"\";\n\n    // Pricing\n    uint256[5] public mAllowedQuantities = [1, 2, 6, 12, 13];\n    mapping(uint256 => uint256) public mPriceMap;\n\n    constructor() ERC721A(\"DangerDonuts\", \"DD\") {\n        mPriceMap[1] = 0.0169 ether;\n        mPriceMap[2] = 0.0169 ether;\n        mPriceMap[6] = 0.05 ether;\n        mPriceMap[12] = 0.09 ether;\n        mPriceMap[13] = 0.0969 ether;\n    }\n\n    /// Functions for minting\n    function mint(uint256 quantity) external payable {\n        require(mPublicSaleIsActive, \"Public sale must be active to mint\");\n        require(quantity + totalSupply() <= mMaxTokenSupply, \"Purchase would exceed max supply\");\n        bool isQuantityMapped = false;\n        for(uint8 i = 0; i < mAllowedQuantities.length; i++)\n        {\n            if(quantity == mAllowedQuantities[i]){\n                isQuantityMapped = true;\n                break;\n            }\n        }\n        require(isQuantityMapped, \"Quantity not on the menu\");\n        require(msg.value >= mPriceMap[quantity], \"Ether value sent was not enough\");\n\n        _safeMint(msg.sender, quantity);\n    }\n\n    function reserveMint(address[] calldata recipients, uint256[] calldata quantities) external onlyOwner nonReentrant {\n        require(recipients.length == quantities.length, \"Array lengths must match\");\n        \n        // Ensure total quantities doesn't exceed supply\n        uint256 totalQuantity = 0;\n        for(uint256 i = 0; i < quantities.length; i++){\n            totalQuantity += quantities[i];\n        }\n        require(totalQuantity + totalSupply() <= mMaxTokenSupply, \"Reserve mint would exceed max supply\");\n        \n        // Mint for each address\n        for (uint256 i = 0; i < recipients.length; i++) {\n            _safeMint(recipients[i], quantities[i]);\n        }\n    }\n\n    /// Functions for managing token metadata\n    function setBaseURI(string calldata baseURI) external onlyOwner {\n        mBaseURI = baseURI;\n    }\n\n    function _baseURI() internal view virtual override returns (string memory) {\n        return mBaseURI;\n    }\n\n    /// Turns sale state on/off - ONLY OWNER\n    function flipPublicSaleState() external onlyOwner {\n         mPublicSaleIsActive = !mPublicSaleIsActive;\n    }\n\n    /// Ether withdrawal - ONLY OWNER\n    function forceWithdraw(uint256 amount, address payable to) external onlyOwner nonReentrant {\n        (bool success, ) = payable(to).call{value: amount}(\"\");\n        require(success, \"Transfer failed.\");\n    }\n}",
  "sourcePath": "/home/pm/Documents/git_repos/donuts/blockchain/contracts/DangerDonuts.sol",
  "compiler": {
    "name": "solc",
    "version": "0.8.7+commit.e28d00a7.Emscripten.clang"
  },
  "schemaVersion": "3.4.6",
  "updatedAt": "2022-04-19T04:14:12.381Z",
  "devdoc": {
    "kind": "dev",
    "methods": {
      "approve(address,uint256)": {
        "details": "See {IERC721-approve}."
      },
      "balanceOf(address)": {
        "details": "See {IERC721-balanceOf}."
      },
      "getApproved(uint256)": {
        "details": "See {IERC721-getApproved}."
      },
      "isApprovedForAll(address,address)": {
        "details": "See {IERC721-isApprovedForAll}."
      },
      "name()": {
        "details": "See {IERC721Metadata-name}."
      },
      "owner()": {
        "details": "Returns the address of the current owner."
      },
      "ownerOf(uint256)": {
        "details": "See {IERC721-ownerOf}."
      },
      "renounceOwnership()": {
        "details": "Leaves the contract without owner. It will not be possible to call `onlyOwner` functions anymore. Can only be called by the current owner. NOTE: Renouncing ownership will leave the contract without an owner, thereby removing any functionality that is only available to the owner."
      },
      "safeTransferFrom(address,address,uint256)": {
        "details": "See {IERC721-safeTransferFrom}."
      },
      "safeTransferFrom(address,address,uint256,bytes)": {
        "details": "See {IERC721-safeTransferFrom}."
      },
      "setApprovalForAll(address,bool)": {
        "details": "See {IERC721-setApprovalForAll}."
      },
      "supportsInterface(bytes4)": {
        "details": "See {IERC165-supportsInterface}."
      },
      "symbol()": {
        "details": "See {IERC721Metadata-symbol}."
      },
      "tokenURI(uint256)": {
        "details": "See {IERC721Metadata-tokenURI}."
      },
      "totalSupply()": {
        "details": "See {IERC721Enumerable-totalSupply}.Burned tokens are calculated here, use _totalMinted() if you want to count just minted tokens."
      },
      "transferFrom(address,address,uint256)": {
        "details": "See {IERC721-transferFrom}."
      },
      "transferOwnership(address)": {
        "details": "Transfers ownership of the contract to a new account (`newOwner`). Can only be called by the current owner."
      }
    },
    "version": 1
  },
  "userdoc": {
    "kind": "user",
    "methods": {
      "flipPublicSaleState()": {
        "notice": "Turns sale state on/off - ONLY OWNER"
      },
      "forceWithdraw(uint256,address)": {
        "notice": "Ether withdrawal - ONLY OWNER"
      },
      "mint(uint256)": {
        "notice": "Functions for minting"
      },
      "setBaseURI(string)": {
        "notice": "Functions for managing token metadata"
      }
    },
    "version": 1
  }
}